:100000000C947E000C943D0B0C943D0B0C943D0B1A
:100010000C943D0B0C943D0B0C943D0B0C943D0B40
:100020000C943D0B0C943D0B0C943D0B0C943D0B30
:100030000C943D0B0C943D0B0C943D0B0C943D0B20
:100040000C943D0B0C943D0B0C943D0B0C943D0B10
:100050000C9424090C943D0B0C943D0B0C943D0B1B
:100060000C943D0B0C943D0B0C943D0B0C943D0BF0
:100070000C943D0B0C943D0B0C943D0B0C943D0BE0
:100080000C943D0B0C943D0B0C943D0B0C943D0BD0
:100090000C943D0B0C943D0B0C943D0B0C943D0BC0
:1000A0000C943D0B0C943D0B0C943D0B0C943D0BB0
:1000B0000C943D0B0C943D0B0C943D0B0C943D0BA0
:1000C0000C943D0B0C943D0B0C943D0B1A02E30277
:1000D0002E02E3023D02E302510260026902E302E2
:1000E0009C02E302B402E302CC020100012D800174
:1000F0002D012E000191012E0133800011241FBE1D
:10010000CFEFD8E0DEBFCDBFEAEEF0E040E017C0B1
:10011000B591A59135912591059107FD0CC095915B
:100120008591EF01F92FE82F05900D92A217B307E3
:10013000D9F7FE0104C01D92A217B307E1F7EB3F08
:10014000F40731F70E94C9000C94D70AF894FFCF46
:10015000794D3D006D6F4D3D00644D3D00684D3D56
:10016000006D694D3D00646E4D3D0054696E4D3D1E
:100170000052684D3D00546F75743D0057696E64C0
:020180003D0040
:0F018200706167652030007669732074302C003F
:010191003D30
:100192000E94E20A0E948E0A0E946C0A0E94370B99
:1001A2000E940C0A0E94BE0A78940E94B6084C9BD8
:1001B20003C08BB18F7E8BB9809132018930E9F017
:1001C200809132018823C9F080912B0190912C01FA
:1001D200019690932C0180932B0180912B01909199
:1001E2002C01893E9D4F48F08BB18F7E8BB91092C6
:1001F200320110922C0110922B0180913201893030
:1002020009F087C08FEF90E722E0815090402040B4
:10021200E1F700C00000E1E0F1E0708181816281DC
:1002220053814481358126819781870F860F850FFF
:10023200840F830F820F890F9085891363C08FEF1C
:1002420090E722E0815090402040E1F700C000009A
:1002520069E871E080E00E94CD0981E30E94F20A20
:100262008FEF0E94F20A8FEF0E94F20A8FEF0E9434
:10027200F20A8FEF95EA2EE0815090402040E1F79C
:1002820000C0000069E871E080E00E94CD0980E3CF
:100292000E94F20A8FEF0E94F20A8FEF0E94F20A86
:1002A2008FEF0E94F20A8FE798E321E0815090409D
:1002B2002040E1F700C000000E94FF0128C0209109
:1002C2000101273841F020910101283821F02091C5
:1002D20001012836A9F40E94F2020E946A060E94D5
:1002E200DD0862E871E080E00E94CD098FEF0E9494
:1002F200F20A8FEF0E94F20A8FEF0E94F20A07C001
:10030200019602C080E090E083309105C4F2109221
:10031200320181E00E94B6090E94CC0A90912D011F
:10032200891709F444CF81E00E94B6090E94CC0AE1
:1003320080932D010E94F2020E946A060E94DD084B
:100342000E94CF078FEF90E722E08150904020403B
:10035200E1F700C0000080910A018823B9F0E09023
:10036200300100910C0120910B0140911D0160911F
:100372001C0180911B010E94A2038FE798E321E0F8
:10038200815090402040E1F700C0000080910001C0
:100392008823B9F0E0902F010091100120910F0104
:1003A2004091230160911501809114010E94A203E2
:1003B2008FE798E321E0815090402040E1F700C0B0
:1003C200000080912801882309F4F1CEE0902E01EB
:1003D20000911701209119014091110160910E01C4
:1003E200809129010E94A2038FE798E321E08150C6
:0C03F20090402040E1F700C00000D9CE90
:1003FE00EF920F934D9B03C08BB18F7D8BB94C99B0
:10040E0003C08BB180618BB9E09101018E2F90E01A
:10041E00FC01E15AF109EF30F10508F0CDC0EA59BF
:10042E00FF4F0C94290BE1E0F1E0818180932601CE
:10043E00828180931301838180931A0140911A0166
:10044E0060911301809126010E946307B5C0E1E01F
:10045E00F1E081818093120182818093210160916C
:10046E002101809112010E94FF07A6C0E1E0F1E098
:10047E0081818093180182818093160183818093FC
:10048E0022014091220160911601809118010E9473
:10049E00990792C0E1E0F1E0818180932001828191
:1004AE0080932A0160912A01809120010E942F08D9
:1004BE0083C08091020180932501809125010E94C5
:1004CE008E087AC0E1E0F1E081818093270182817C
:1004DE0080930D01838180931F0184818093240179
:1004EE00858180931E01868180933101E0903101D8
:1004FE0000911E012091240140911F0160910D0178
:10050E00809127010E946C050E94F20262E871E060
:10051E0080E00E94CD098FEF0E94F20A8FEF0E94B9
:10052E00F20A8FEF0E94F20A47C0E1E0F1E081810A
:10053E0080930A01828180931B01838180931C0129
:10054E00848180931D01858180930B018681809328
:10055E000C018781809330012FC0E1E0F1E08181B1
:10056E008093000182818093140183818093150111
:10057E00848180932301858180930F0186818093EE
:10058E001001878180932F0117C0E1E0F1E0818196
:10059E0080932801828180932901838180930E01AB
:1005AE0084818093110185818093190186818093C6
:1005BE001701878180932E012FE788E391E0215068
:1005CE0080409040E1F700C000008BB180628BB993
:0605DE000F91EF9008955B
:1005E400EF92FF920F931F93CF93DF934D9B03C022
:1005F4008BB18F7D8BB94C9903C08BB180618BB962
:1006040081E00E94B609D82F82E00E94B609182F13
:1006140083E00E94B609C82F84E00E94B609082F1F
:1006240085E00E94B609F82E86E00E94B609E82EFD
:1006340060E571E080E00E94CD098E2D0E94CC0A15
:1006440090E00E94C4058FEF0E94F20A8FEF0E948F
:10065400F20A8FEF0E94F20A64E571E080E00E94E2
:10066400CD098F2D0E94CC0A90E00E94C4058FEF23
:100674000E94F20A8FEF0E94F20A8FEF0E94F20AA0
:1006840069E571E080E00E94CD09802F0E94CC0AC8
:1006940090E00E94C4058FEF0E94F20A8FEF0E943F
:1006A400F20A8FEF0E94F20A6DE571E080E00E9489
:1006B400CD09812F0E94CC0A90E00E94C4058FEFDF
:1006C4000E94F20A8FEF0E94F20A8FEF0E94F20A50
:1006D40061E671E080E00E94CD098D2F0E94CC0A72
:1006E40090E00E94C4058FEF0E94F20A8FEF0E94EF
:1006F400F20A8FEF0E94F20A66E671E080E00E943F
:10070400CD098C2F0E94CC0A90E00E94C4058FEF83
:100714000E94F20A8FEF0E94F20A8FEF0E94F20AFF
:100724008FE19EE40197F1F700C000008BB1806275
:100734008BB9DF91CF911F910F91FF90EF900895A6
:100744008F929F92AF92BF92CF92DF92EF92FF92DD
:100754000F931F93CF93DF93182FC62F842EC22E8F
:100764004D9B03C08BB18F7D8BB94C9903C08BB16A
:1007740080618BB981E00E94B6090E94CC0AD82E10
:1007840082E00E94B6090E94CC0AD82F83E00E941E
:10079400B6090E94CC0AF82EDC1346C0D11244C01C
:1007A400912C540126EBA20EB11CD12CAC0CBD1C17
:1007B40010E0A00EB11EC0E0D0E033C08E2D90E05A
:1007C4000C2E02C0959587950A94E2F780FF1FC00E
:1007D4002F2D30E0CE01019682179307C1F486EBEA
:1007E40090E00E941706C4010E941706C6010E94E9
:1007F4001706C8010E94170680E090E00E941706C1
:1008040080E090E00E941706C5010E9417068FEF52
:1008140090E722E0815090402040E1F700C00000C2
:100824002196C730D10554F28FE19EE40197F1F788
:1008340000C000008BB180628BB9DF91CF911F9112
:100844000F91FF90EF90DF90CF90BF90AF909F906B
:040854008F900895E4
:1008580010C00E94150B58F00E940E0B40F029F4AE
:100868005F3F29F00C94230B51110C941D0B0C9431
:100878003A0B0E94020968F39923B1F3552391F3C7
:10088800951B550BBB27AA2762177307840738F0F7
:100898009F5F5F4F220F331F441FAA1FA9F335D054
:1008A8000E2E3AF0E0E832D091505040E695001C08
:1008B800CAF72BD0FE2F29D0660F771F881FBB1FC2
:1008C800261737074807AB07B0E809F0BB0B802DA0
:1008D800BF01FF2793585F4F3AF09E3F510578F0CC
:1008E8000C94230B0C941D0B5F3FE4F3983ED4F358
:1008F800869577956795B795F7959F5FC9F7880FA0
:10090800911D9695879597F90895E1E0660F771FF1
:10091800881FBB1F621773078407BA0720F0621B82
:0E092800730B840BBA0BEE1F88F7E095089551
:100936000FC00E940E0B38F00E94150B20F0952375
:1009460011F00C94230B0C943A0B11240C941D0BF0
:100956000E94020970F3959FC1F3950F50E0551F51
:10096600629FF001729FBB27F00DB11D639FAA27FE
:10097600F00DB11DAA1F649F6627B00DA11D661F4D
:10098600829F2227B00DA11D621F739FB00DA11D6E
:10099600621F839FA00D611D221F749F3327A00D28
:1009A600611D231F849F600D211D822F762F6A2FC4
:1009B60011249F5750409AF0F1F088234AF0EE0F29
:1009C600FF1FBB1F661F771F881F91505040A9F756
:1009D6009E3F510580F00C94230B0C941D0B5F3F3A
:1009E600E4F3983ED4F3869577956795B795F79592
:1009F600E7959F5FC1F7FE2B880F911D969587950A
:040A060097F90895BF
:100A0A0011C00E940E0B38F00E94150B20F039F429
:100A1A009F3F19F426F40C943A0B0EF4E095E7FB89
:100A2A000C94230BE92F0E94020958F3BA176207A4
:100A3A0073078407950720F079F4A6F50C941C0B2C
:100A4A000EF4E0950B2EBA2FA02D0B01B9019001DF
:100A5A000C01CA01A0011124FF27591B99F0593F23
:100A6A0050F4503E68F11A16F040A22F232F342F6B
:100A7A004427585FF3CF469537952795A795F040B9
:100A8A005395C9F77EF41F16BA0B620B730B840BCE
:100A9A00BAF09150A1F0FF0FBB1F661F771F881F86
:100AAA00C2F70EC0BA0F621F731F841F48F48795DE
:100ABA0077956795B795F7959E3F08F0B0CF9395D0
:0E0ACA00880F08F09927EE0F979587950895ED
:100AD800EF92FF920F931F93CF93DF93C82FD62FD8
:100AE800142FF22E4D9903C08BB18F7D8BB94C9B7F
:100AF80003C08BB180618BB980E00E94E309682F45
:100B080080E00E94F809802F0E94E309682F81E0A5
:100B18000E94F8098F2D0E94E309682F82E00E9445
:100B2800F8098E2D0E94E309682F83E00E94F809D6
:100B3800812F0E94E309682F84E00E94F8098D2F15
:100B48000E94E309682F85E00E94F8098C2F0E9413
:100B5800E309682F86E00E94F8092FE788E391E00F
:100B6800215080409040E1F700C000008BB18062C6
:100B78008BB9DF91CF911F910F91FF90EF9008955E
:100B8800EF92FF920F931F93CF93DF93EC0199237A
:100B980034F48DE20E94F20AD195C195D109CE01B3
:100BA800CA30D10520F4805D0E94F20A35C09E014A
:100BB8002A5031092A35310578F4CE016AE070E00F
:100BC8000E94200AC82F80E3860F0E94F20A80E361
:100BD8008C0F0E94F20A20C08456910984389340F1
:100BE800D8F4CE0164E670E00E94200A7C0180E31C
:100BF800860F0E94F20A0AE010E0C701B8010E94BD
:100C0800200A80E3860F0E94F20ACE01B8010E94F2
:100C1800200A805D0E94F20ADF91CF911F910F9107
:060C2800FF90EF9008951B
:100C2E00EF92FF920F931F93CF93DF93EC019923D3
:100C3E0034F48DE20E94F90AD195C195D109CE0105
:100C4E00CA30D10520F4805D0E94F90A35C09E019C
:100C5E002A5031092A35310578F4CE016AE070E068
:100C6E000E94200AC82F80E3860F0E94F90A80E3B3
:100C7E008C0F0E94F90A20C0845691098438934043
:100C8E00D8F4CE0164E670E00E94200A7C0180E375
:100C9E00860F0E94F90A0AE010E0C701B8010E940F
:100CAE00200A80E3860F0E94F90ACE01B8010E9445
:100CBE00200A805D0E94F90ADF91CF911F910F915A
:060CCE00FF90EF90089575
:100CD400CF92DF92EF92FF924D9B03C08BB18F7D39
:100CE4008BB94C9903C08BB180618BB90E94F1061A
:100CF4000E94070B6B017C016BE671E080E00E94AF
:100D0400CD09C6010E94C4058FEF0E94F20A8FEF3D
:100D14000E94F20A8FEF0E94F20A0E942D070E949D
:100D2400070B6B017C0161E771E080E00E94CD0953
:100D3400C6010E94C4058FEF0E94F20A8FEF0E9441
:100D4400F20A8FEF0E94F20A8FE19EE40197F1F715
:100D540000C000008BB180628BB9FF90EF90DF90F0
:040D6400CF9008958F
:100D6800E89409C097FB3EF490958095709561953D
:100D78007F4F8F4F9F4F9923A9F0F92F96E9BB27F3
:100D88009395F695879577956795B795F111F8CF6F
:100D9800FAF4BB0F11F460FF1BC06F5F7F4F8F4FDA
:100DA8009F4F16C0882311F096E911C0772321F0D0
:100DB8009EE8872F762F05C0662371F096E8862F68
:100DC80070E060E02AF09A95660F771F881FDAF7BF
:0A0DD800880F9695879597F9089506
:100DE200CF93DF930E94630988E80E949C098CE2FA
:100DF2000E949C0986E00E949C098FE39CE901976E
:100E0200F1F700C000000E94630989E80E949C0972
:100E12000E945A0A90E0C92FD82F0E945A0AC82B62
:100E22000E94AE0ABE0180E090E00E94B40620E07B
:100E320030E04FE253E40E94330B20E03FEF4FE7F4
:100E420057E40E942F0B20E030E044E352E40E947A
:080E5200000BDF91CF91089520
:100E5A00CF93DF930E94630988E80E949C0984E289
:100E6A000E949C0980E00E949C098FE39CE90197FB
:100E7A00F1F700C000000E94630989E80E949C09FA
:100E8A000E945A0A90E0C92FD82F0E945A0AC82BEA
:100E9A000E94AE0ABE0180E090E00E94B40620E003
:100EAA0030E048EC52E40E94330B20E03FEF4FE77A
:0C0EBA0057E40E942F0BDF91CF910895A8
:100EC600CF92DF92EF92FF920F931F93CF93DF9310
:100ED600E82EF12CE701CF54DF4F062F10E0C00FAC
:100EE600D11FC42ED12CCC0DDD1D81EB90E00E94CC
:100EF6001706C7010E941706C8010E941706C601F9
:100F06000E94170680E090E00E94170680E090E0BD
:100F16000E941706CE010E941706DF91CF911F91FE
:0C0F26000F91FF90EF90DF90CF900895A6
:100F3200CF92DF92EF92FF920F931F93CF93DF93A3
:100F4200E82EF12CE701CB54DF4F062F10E0C00F43
:100F5200D11FC42ED12CCC0DDD1D85EB90E00E945B
:100F62001706C7010E941706C8010E941706C6018C
:100F72000E94170680E090E00E94170680E090E051
:100F82000E941706CE010E941706DF91CF911F9192
:0C0F92000F91FF90EF90DF90CF9008953A
:100F9E00CF92DF92EF92FF92CF93DF930E94F106F2
:100FAE000E94070B6B017C01EB01C450DF4F80EBFD
:100FBE0090E00E941706C6010E94170689E190E094
:100FCE000E94170683E390E00E94170680E090E0EF
:100FDE000E94170680E090E00E941706CE010E9444
:100FEE001706DF91CF91FF90EF90DF90CF9008958D
:100FFE00EF92FF920F931F93CF93DF93082F10E082
:10100E00780183EBE80EF11CC62FD0E0EC0EFD1E2E
:10101E0083EB90E00E941706C8010E941706CE01CE
:10102E000E94170680E090E00E94170680E090E094
:10103E000E94170680E090E00E941706C7010E94EA
:10104E001706DF91CF911F910F91FF90EF900895AA
:10105E00EF92FF920F931F93CF93DF93082F10E021
:10106E00780187EBE80EF11CC62FD0E0EC0EFD1ECA
:10107E0087EB90E00E941706C8010E941706CE016A
:10108E000E94170680E090E00E94170680E090E034
:10109E000E94170680E090E00E941706C7010E948A
:1010AE001706DF91CF911F910F91FF90EF9008954A
:1010BE000E940A0988F09F5798F0B92F9927B751C7
:1010CE00B0F0E1F0660F771F881F991F1AF0BA95DE
:1010DE00C9F714C0B13091F00E941C0BB1E0089515
:1010EE000C941C0B672F782F8827B85F39F0B93F07
:1010FE00CCF3869577956795B395D9F73EF4909591
:0E110E008095709561957F4F8F4F9F4F08958C
:10111C000F931F93CF93DF93C82FD0E08E01085409
:10112C001F4F88EB90E00E941706CE010E94170615
:10113C0080E090E00E94170680E090E00E94170685
:10114C0080E090E00E94170680E090E00E94170675
:10115C00C8010E941706DF91CF911F910F9108953E
:10116C0020E030E020C08BB18F7E8BB98BB18F7DAE
:10117C008BB94FEF81EE94E0415080409040E1F705
:10118C0000C000008BB180618BB98BB180628BB9D0
:10119C004FEF80E792E0415080409040E1F700C073
:0E11AC0000002F5F3F4F23303105ECF2089515
:1011BA0066E771E080E00E94CD0989E190E00E9433
:1011CA00C4058FEF0E94F20A8FEF0E94F20A8FEF96
:1011DA000E94F20A6CE771E080E00E94CD0983E385
:1011EA0090E00E94C4058FEF0E94F20A8FEF0E94DE
:0A11FA00F20A8FEF0E94F20A089536
:1012040057FD9058440F551F59F05F3F71F04795B3
:10121400880F97FB991F61F09F3F79F08795089598
:10122400121613061406551FF2CF4695F1DF08C0B7
:10123400161617061806991FF1CF869571056105D4
:04124400089408956D
:10124800FFB6FF928F939F93EF93FF93E091320144
:10125800F0E08091C600EF5FFE4F808380913201FD
:101268008F5F8093320110922C0110922B010E9403
:10127800EA0AFF91EF919F918F91FF90FFBE189519
:1012880084EA8093BC0080E090E005C0893E23E0BA
:1012980092072CF401962091BC002223BCF7809180
:1012A800B900887F883039F08091B900887F803113
:0E12B80021F480E0089580E0089581E008951B
:1012C60084EA8093DC0080E090E005C0893E23E05C
:1012D60092072CF401962091DC002223BCF7809122
:1012E600D900887F883039F08091D900887F803195
:0E12F60021F480E0089580E0089581E00895DD
:101304008093BB0084E88093BC0080E090E005C03B
:10131400893E23E092072CF401962091BC002223FD
:10132400BCF78091B900887F883211F081E008957C
:0413340080E00895B8
:101338008093DB0084E88093DC0080E090E005C0C7
:10134800893E23E092072CF401962091DC002223A9
:10135800BCF78091D900887F883211F081E0089528
:0413680080E0089584
:10136C00CF93C82F0E94440980ED0E9482098C2FD4
:10137C000E9482090E94440981ED0E9482090E9408
:0E138C00480AC82F0E949E0A8C2FCF91089508
:10139A00CF92DF92EF926B01E82E06C09FEFC91A37
:1013AA00D90AE90A0E94F20AF6018491E7FC8081CF
:0C13BA008111F4CFEF90DF90CF900895E8
:1013C6009DEC899F912D1124969596959695392F8A
:1013D600330F232F220F220F230F821B282F30E1DA
:0A13E600939FC0011124822B08958B
:1013F000CF93DF93D82FC62F0E94440980ED0E941F
:1014000082098D2F0E9482098C2F0E9482090E94DE
:081410009E0ADF91CF910895BF
:101418001092C50083E38093C400E1ECF0E0808182
:1014280080618083808188608083808180688083F8
:081438008EE08093C2000895CC
:1014400097FB072E16F4009407D077FD09D00E9471
:10145000340A07FC05D03EF4909581959F4F08957E
:08146000709561957F4F08951E
:10146800AA1BBB1B51E107C0AA1FBB1FA617B707C2
:1014780010F0A61BB70B881F991F5A95A9F78095DE
:081488009095BC01CD0108950F
:1014900084E88093BC0080E090E005C0893E23E0B2
:1014A00092072CF401962091BC002223BCF7809176
:0414B000BB000895E0
:1014B40084E88093DC0080E090E005C0893E23E06E
:1014C40092072CF401962091DC002223BCF7809132
:0414D400DB0008959C
:1014D80080E28093D800E9EDF0E080818E7F808300
:1014E80080818D7F80838DB18F798DB980E68EB9AB
:0214F800089555
:1014FA00092E0394000C11F4882352F0BB0F40F418
:10150A00BF2B11F460FF04C06F5F7F4F8F4F9F4F57
:02151A00089532
:10151C001092B800E9EBF0E080818E7F80838081AF
:10152C008D7F808387B18C7F87B983E088B90895DC
:10153C0084E98093BC008091BC0084FFFCCF809137
:10154C00B900887F803A11F081E0089580E0089519
:10155C0084E98093DC008091DC0084FFFCCF8091D7
:10156C00D900887F803A11F081E0089580E00895D9
:10157C001092CD0083E38093CC00E9ECF0E0808105
:0C158C00886080838EE08093CA00089580
:10159800982F92959F70990F292F220F220F920F43
:0615A8008F70890F089509
:1015AE00EC010E94420B0E94410BCE010E94430BA4
:0615BE00CE010E943F0B6C
:1015C40080E38AB98AB18F738AB980EC8BB90895A4
:1015D40002C08091C6008091C0008823D4F308958E
:0E15E4009091C00095FFFCCF8093C600089543
:0E15F2009091C80095FFFCCF8093CE00089525
:0E1600005058BB27AA270E9405050C947D0AAE
:0E160E000E945F086894B1110C941D0B0895A2
:0E161C0000240A9416161706180609060895EB
:0E162A0000240A9412161306140605060895ED
:0E163800E894BB2766277727CB0197F9089522
:0C16460097F99F6780E870E060E008956D
:0C165200EE0FFF1F0590F491E02D0994AD
:08165E000E942C040C947D0A8B
:081666000E949B040C947D0A14
:06166E000E946C0A0895C1
:061674009FEF80EC0895D9
:04167A000C940000CC
:04167E000E94A60020
:021682000895C9
:021684000895C7
:021686000895C5
:00000001FF
